S00E00004D696C6C69732E73726563AC
S11300000C9434000C9446000C9446000C94460066
S11300100C9446000C9446000C9446000C94460044
S11300200C9446000C9446000C9446000C94640016
S11300300C9446000C9446000C9446000C94460024
S11300400C9446000C9446000C9446000C94460014
S11300500C9446000C9446000C9446000C94460004
S11300600C9446000C94460011241FBECFEFD8E038
S1130070DEBFCDBF21E0A0E0B1E001C01D92A230FF
S1130080B207E1F70E9475000C947C000C94000008
S1130090579A5F9A08958BE08093800089E09DE3EE
S11300A09093890080938800089580910001909135
S11300B00101019741F0109285001092840082E0C2
S11300C080936F00789408951F920F920FB60F9249
S11300D0112410926F005F9A109201011092000196
S11300E00F900FBE0F901F9018950E9448000E9419
S10F00F04B000E945500FDCFF894FFCF98
S9030000FC
