S011000046696E616C436F64652E73726563AE
S113000088C00000A5C00000A3C00000A1C000007B
S11300109FC000009DC000009BC0000099C000006C
S113002097C0000095C0000093C0000091C000007C
S11300308FC000008DC000008BC0000089C000008C
S113004087C0000085C0000083C0000081C000009C
S11300507FC000007DC000007BC0000079C00000AC
S113006077C0000075C0000073C0000071C00000BC
S11300706FC000006DC000006BC0000069C00000CC
S113008067C0000065C0000063C0000061C00000DC
S11300905FC000005DC000005BC0000059C00000EC
S11300A057C0000055C0000053C0000051C00000FC
S11300B04FC000004DC000004BC0000049C000000C
S11300C047C0000045C0000043C0000041C000001C
S11300D03FC000003DC000003BC0000039C000002C
S11300E037C00000084AD73B3BCE016E84BCBFFD3D
S11300F0C12F3D6C74319ABD56833DDA3D00C77FF4
S113010011BED9E4BB4C3E916BAAAABE000000808C
S11301103F0011241FBECFEFD1E2DEBFCDBF00E010
S11301200CBF12E0A0E0B2E0EAE9FFE000E00BBFA0
S113013002C007900D92A030B107D9F722E0A0E0E9
S1130140B2E001C01D92A133B207E1F733D323C754
S113015057CF2F923F924F925F926F927F928F92DE
S11301609F92AF92BF92CF92DF92EF92FF920F9342
S11301701F93CF93DF93EB011A014617570774F1CE
S11301808B01000F111F000F111F080F191F412CA5
S1130190512C320153014201F801C190D190E190F8
S11301A0F1908F01BE010D2E000C880B990BADD57B
S11301B0A70196018AD69B01AC01C501B40145D4BF
S11301C04B015C01A7019601C301B2013ED42B018E
S11301D03C0121962C163D06FCF605C0412C512C01
S11301E0320153014201A3019201C501B401F7D4C4
S11301F0DF91CF911F910F91FF90EF90DF90CF90FF
S1130200BF90AF909F908F907F906F905F904F9032
S11302103F902F900895CF92DF92EF92FF920F9329
S11302201F93CF93DF937C018C016C0180E2C80E95
S1130230D11CE701288139814A815B8160E070EC3F
S11302408FE794E401D46993799389939993CC15B6
S1130250DD0581F7C0E0D0E0C12CD12CF80121915B
S11302603191419151918F01F601EE0FFF1FEE0F75
S1130270FF1FEE0DFF1D6081718182819381ABD4DC
S113028088230CF46E012196C830D10539F7F601A4
S1130290E150F04CEE0FFF1FEE0FFF1FEE0DFF1DA0
S11302A02085318542855385608171818281938166
S11302B001D618164CF4A6014F5F5F4FB601625089
S11302C07109C70146DF08C0A6014E5F5F4FB60142
S11302D061507109C7013DDFDF91CF911F910F91EB
S11302E0FF90EF90DF90CF900895CF92DF92EF923E
S11302F0FF926B017C0120E030E0A901DBD51816E8
S113030024F0C701B601905802C0C701B601FF909E
S1130310EF90DF90CF90089516161706BCF4FC01F9
S11303202081318142175307A1F03296660F771F5F
S1130330860F971F05C0219131912417350761F06D
S1130340E817F907C1F780E090E0089580E090E0B5
S1130350089581E090E0089581E090E008952F925F
S11303603F924F925F926F927F928F929F92AF9241
S1130370BF92CF92DF92EF92FF920F931F93CF938E
S1130380DF93CDB7DEB7A4970FB6F894DEBF0FBEE8
S1130390CDBF1C01C12CD12C812C912CA12CB12CB2
S11303A0A601B501CE010196B7DF892B09F067C01C
S11303B0A601B401CE014196AFDF892B09F05FC0DD
S11303C088E0C816D1040CF05AC0D1018D919D91DA
S11303D00D90BC91A02D89A39AA3ABA3BCA37101DA
S11303E08601F70121913191419151917F0169A1D8
S11303F07AA18BA19CA128D32B013C0120E030E001
S1130400A90158D5181624F0C301B201905802C0AE
S1130410C301B20120E030E040EF51E4DCD3882393
S113042044F520E030E048EC52E469A17AA18BA1C4
S11304309CA1D1D388237CF4F501EE0FFF1F81E04A
S113044090E08C0F9D1FE80FF91F118300839FEF2D
S1130450A91AB90A0EC0F401EE0FFF1FA1E0B0E023
S1130460AC0FBD1FEA0FFB1F118B008BBFEF8B1A64
S11304709B0A0F5F1F4F0830110509F0B2CFEFEF51
S1130480CE1ADE0AF4E02F0E311C88E0C816D1041F
S113049009F086CF97E0A916B104E4F4A7E08A1620
S11304A09104DCF4C5010597029768F4F5013197CE
S11304B0EE0FFF1FEC0FFD1F81819281079784F4DB
S11304C083E090E012C0B5E0AB16B10464F085E0BF
S11304D090E00BC081E090E008C082E090E005C0AD
S11304E084E090E002C080E090E0A4960FB6F89417
S11304F0DEBF0FBECDBFDF91CF911F910F91FF9053
S1130500EF90DF90CF90BF90AF909F908F907F90AF
S11305106F905F904F903F902F90089520E030E0CF
S113052048E251E4FC016081718182819381CDD4E0
S1130530BED3CB018E5E9D4F08959D9AA5986D9A6A
S113054075986C9A74986B9A749A1092950010929C
S11305509400A0E9B0E01C92E1E9F0E01082739805
S11305608C9182688C9380818A618083109271005F
S113057084EF91E0909399008093980080ED97E048
S11305809093970080939600E5E6F0E08081877F62
S113059080830895ECE7F0E08081806480838FEFAE
S11305A080937E0087E880937A000895ECE7F0E07A
S11305B09081987F90839081892B8083EAE7F0E093
S11305C0808180648083808186FDFDCF8091780066
S11305D09091790008951092A5001092A40080E8EB
S11305E09CE09093A9008093A800E1EAF0E0808168
S11305F08D60808382E080937200E5E6F0E0808184
S11306008F7E8083089580E092E0A9DE8230910598
S113061009F481C02CF4009769F00197E1F1089581
S11306208430910509F49AC00CF47CC0059709F450
S1130630B5C008958091280290912902892B89F0F0
S1130640109229021092280210922D0210922C026C
S113065010922F0210922E0210922B0210922A0254
S11306600EC080912C0290912D02029741F41092B9
S11306702D0210922C0210922F0210922E0280E072
S113068092E0C9DD609320027093210280932202DC
S113069090932302089580912C0290912D02892B2E
S11306A071F480912E0290912F028130910571F0A6
S11306B021E030E030932D0220932C0216C080916B
S11306C02E0290912F028130910579F4109220022C
S11306D010922102109222021092230281E090E0F3
S11306E090932902809328020895029709F061C02B
S11306F080E090E0A0EEB0E4809320029093210289
S1130700A0932202B093230281E090E09093290207
S113071080932802089582E090E090932D028093C4
S11307202C02089580912C0290912D02019779F466
S1130730109220021092210210922202109223029F
S113074081E090E09093290280932802089581E04B
S113075090E090932F0280932E02089580912C02B2
S113076090912D02019799F480E090E0A0EEB0E41E
S11307708093200290932102A0932202B09323023B
S113078081E090E09093290280932802089582E00A
S113079090E090932F0280932E02089580E092E0DF
S11307A03ADD609320027093210280932202909399
S11307B023020895CF93DF93CDB7DEB76B970FB6BF
S11307C0F894DEBF0FBECDBFB8DECAD004DFE2DED0
S11307D081E08B8F80E29EE49A8F898F80E090E0A5
S11307E0A4EBB2E48B8B9C8BAD8BBE8BCE0143967A
S11307F095DE988F8F8BAE01455E5F4FBE01675EBD
S11308007F4FCE014796CED02FE78AE196E0215064
S113081080409040E1F700C000000F2EF4EAAF2EB4
S1130820B12CF02D0F2EF8EACF2ED12CF02D0F2E57
S1130830F0E28F2EFEE49F2EF02DF5012081318110
S1130840F6018081918128173907B9F70F2EF0E05E
S1130850EF2EF2E0FF2EF02D10E0812FA7DEBC0179
S113086080E090E050D2F70161937193819391936A
S11308707F011F5F183089F7C6DE20912002309176
S11308802102409122025091230260E070E080E650
S113089090E4DAD02ADD20E030E044EA51E448D1A3
S11308A023EC35EF48E450E49AD120E030E044E30F
S11308B053E40BD32B013C01609324027093250273
S11308C0809326029093270284E68093300220E0EE
S11308D030E040E650E46091200270912102809162
S11308E0220290912302E6D21816ECF41A8A998A0D
S11308F0888AA301920160E070E084EB92E4A4D0C2
S11309006A877B878C879D87CE010A9607DE9F873F
S11309108E87AE014E5E5F4FBE01605F7F4FCE019A
S11309200E9640D08ACF198698868F8220E030E0D8
S113093044EB52E4C301B20188D069837A838B8388
S11309409C83CE010196EADD9E838D83AE01475FD1
S11309505F4FBE01695F7F4FCE01059623D06DCFF7
S1130960269A2E98E0E8F0E0808183628083E1E8B3
S1130970F0E080818B618083EFE6F0E080818B7F03
S1130980808380818D7F80831092890010928800FB
S113099010928B0010928A00E4E6F0E08081877F59
S11309A080830895EF92FF920F931F93CF93DF9369
S11309B07B01EA011092850010928400FC016081A1
S11309C07181072E000C880B990B9FD128EB3EE117
S11309D045E85EE37AD26BD1EAE8F0E071836083A4
S11309E000811181F70160817181072E000C880B51
S11309F0990B8BD128EB3EE145E85EE366D257D1F3
S1130A00600F711F7093890060938800EFE6F0E037
S1130A108081846080838081826080838881882350
S1130A2061F0A4E8B0E0E8E8F0E02D913C91119782
S1130A308081918128173907C1F7DF91CF911F91E8
S1130A400F91FF90EF9008955058BB27AA270ED01E
S1130A50F7C1E8D130F0EDD120F031F49F3F11F42B
S1130A601EF4B8C10EF4E095E7FBAEC1E92FF9D14D
S1130A7080F3BA17620773078407950718F071F4B7
S1130A809EF511C20EF4E0950B2EBA2FA02D0B018A
S1130A90B90190010C01CA01A0011124FF27591BBF
S1130AA099F0593F50F4503E68F11A16F040A22FC5
S1130AB0232F342F4427585FF3CF46953795279536
S1130AC0A795F0405395C9F77EF41F16BA0B620B35
S1130AD0730B840BBAF09150A1F0FF0FBB1F661F7C
S1130AE0771F881FC2F70EC0BA0F621F731F841FBF
S1130AF048F4879577956795B795F7959E3F08F0E5
S1130B00B3CF9395880F08F09927EE0F97958795A3
S1130B10089588D158F080E891E009F49EEF89D1D6
S1130B2028F040E851E059F45EEF09C053C1BBC15D
S1130B30E92FE07896D168F3092E052AC1F3261728
S1130B4037074807590738F00E2E07F8E02569F0F3
S1130B50E025E0640AC0EF6307F8009407FADB01BC
S1130B60B9019D01DC01CA01AD01EF9347D068D101
S1130B700AD05F91552331F02BED3FE049E450FD5D
S1130B8049EC63CF0895DF93DD27B92FBF7740E8A1
S1130B905FE31616170648075B0710F4D92F8ED1AA
S1130BA09F938F937F936F93F3D1E4EEF0E015D18D
S1130BB047D12F913F914F915F9193D1DD2349F01C
S1130BC09058A2EA2AED3FE049EC5FE3D0785D2734
S1130BD04DDFDF9135C1D4D008F481E008950CD005
S1130BE02FC127D140F01ED130F021F45F3F19F01E
S1130BF0EBC0511159C1EEC034D198F39923C9F314
S1130C005523B1F3951B550BBB27AA27621773070E
S1130C10840738F09F5F5F4F220F331F441FAA1FC2
S1130C20A9F333D00E2E3AF0E0E830D09150504082
S1130C30E695001CCAF729D0FE2F27D0660F771F30
S1130C40881FBB1F261737074807AB07B0E809F012
S1130C50BB0B802DBF01FF2793585F4F2AF09E3FA7
S1130C60510568F0B1C020C15F3FECF3983EDCF35E
S1130C70869577956795B795F7959F5FC9F7880F20
S1130C80911D9695879597F90895E1E0660F771F72
S1130C90881FBB1F621773078407BA0720F0621B03
S1130CA0730B840BBA0BEE1F88F7E0950895E1D01F
S1130CB088F09F5790F0B92F9927B751A0F0D1F041
S1130CC0660F771F881F991F1AF0BA95C9F712C0CB
S1130CD0B13081F0E8D0B1E00895E5C0672F782FF6
S1130CE08827B85F39F0B93FCCF386957795679537
S1130CF0B395D9F73EF490958095709561957F4FA3
S1130D008F4F9F4F0895E89409C097FB3EF4909548
S1130D108095709561957F4F8F4F9F4F9923A9F0D0
S1130D20F92F96E9BB279395F6958795779567955F
S1130D30B795F111F8CFFAF4BB0F11F460FF1BC0A3
S1130D406F5F7F4F8F4F9F4F16C0882311F096E936
S1130D5011C0772321F09EE8872F762F05C06623E4
S1130D6071F096E8862F70E060E02AF09A95660F9D
S1130D70771F881FDAF7880F9695879597F9089556
S1130D80990F0008550FAA0BE0E8FEEF1616170698
S1130D90E807F907C0F012161306E407F50798F000
S1130DA0621B730B840B950B39F40A2661F0232B19
S1130DB0242B252B21F408950A2609F4A140A69595
S1130DC08FEF811D811D089597F99F6780E870E07A
S1130DD060E008959FEF80EC0895DF93CF931F9315
S1130DE00F93FF92EF92DF927B018C01689405C010
S1130DF0DA2EEF0176D0FE01E894A5912591359184
S1130E0045915591AEF3EF0131DEFE019701A80142
S1130E10DA9479F7DF90EF90FF900F911F91CF91C3
S1130E20DF91089500240A94161617061806090679
S1130E30089500240A94121613061406050608954C
S1130E40092E0394000C11F4882352F0BB0F40F4D4
S1130E50BF2B11F460FF04C06F5F7F4F8F4F9F4F14
S1130E60089557FD9058440F551F59F05F3F71F096
S1130E704795880F97FB991F61F09F3F79F08795FD
S1130E800895121613061406551FF2CF4695F1DF86
S1130E9008C0161617061806991FF1CF8695710516
S1130EA0610508940895E894BB2766277727CB014A
S1130EB097F9089565DF08F48FEF08959B01AC015D
S1130EC060E070E080E89FE38ACE0BD0B9CFAADF60
S1130ED028F0AFDF18F0952309F076CF7BCF1124EB
S1130EE0E3CFBFDFA0F3959FD1F3950F50E0551FDB
S1130EF0629FF001729FBB27F00DB11D639FAA276B
S1130F00F00DB11DAA1F649F6627B00DA11D661FB9
S1130F10829F2227B00DA11D621F739FB00DA11DDA
S1130F20621F839FA00D611D221F749F3327A00D94
S1130F30611D231F849F600D211D822F762F6A2F30
S1130F4011249F5750408AF0E1F088234AF0EE0FB5
S1130F50FF1FBB1F661F771F881F91505040A9F7C2
S1130F609E3F510570F030CF9FCF5F3FECF3983E2A
S1130F70DCF3869577956795B795F795E7959F5F29
S1130F80C1F7FE2B880F911D9695879597F90895C3
S10D0F909B01AC019ACFF894FFCF47
S9030000FC
