S00F0000616463546573742E737265634D
S113000071C0000081C000007FC000007DC00000FE
S11300107BC0000079C0000077C0000075C00000FC
S113002073C0000071C000006FC000006DC000000C
S11300306BC0000069C0000067C0000065C000001C
S113004063C0000061C000005FC000005DC000002C
S11300505BC0000059C0000057C0000055C000003C
S113006053C0000051C000004FC000004DC000004C
S11300704BC0000049C0000047C0000045C000005C
S113008043C0000041C000003FC000003DC000006C
S11300903BC0000039C0000037C0000035C000007C
S11300A033C0000031C0000054C000002DC0000067
S11300B02BC0000029C0000027C0000025C000009C
S11300C023C0000021C000001FC000001DC00000AC
S11300D01BC0000019C0000017C0000015C00000BC
S11300E013C0000011241FBECFEFD1E2DEBFCDBF8D
S11300F000E00CBF22E0A0E0B2E001C01D92A030FD
S1130100B207E1F734D047C07BCFECE7F0E0808161
S1130110806480838FEF80937E0087E880937A00E9
S113012008951092A5001092A40082E19AE790939A
S1130130A9008093A800E1EAF0E080818D608083CB
S113014082E080937200E5E6F0E080818F7E808318
S113015008951F920F920FB60F9211241092A500CA
S11301601092A4000F900FBE0F901F901895279A1D
S11301702F98D7DFCADFA4EAB0E0E8EAF0E02D91D7
S11301803C9111978081918128173907C1F785B176
S10D0190805885B9F4CFF894FFCF2E
S9030000FC
