:100000000C9434000C9446000C9446000C9446006A
:100010000C9446000C9446000C9446000C94460048
:100020000C9446000C9446000C9446000C94690015
:100030000C9446000C9446000C9446000C94460028
:100040000C9446000C9446000C9446000C94460018
:100050000C9446000C9446000C9446000C94460008
:100060000C9446000C94460011241FBECFEFD8E03C
:10007000DEBFCDBF21E0A0E0B1E001C01D92A23003
:10008000B207E1F70E947E000C9486000C940000F9
:10009000579A5F9808958DE08093810088E09DE3F2
:1000A0009093890080938800089580910001909139
:1000B0000101019769F0109285001092840082E09E
:1000C00080936F0081E090E09093010180930001A4
:1000D00008951F920F920FB60F9211248F931092D2
:1000E0006F008BB180588BB9109201011092000102
:1000F0008F910F900FBE0F901F9018950E9448008F
:100100000E944B0078940E945500FDCFF894FFCFD9
:00000001FF
