:1000000071C0000079C0000077C0000075C000001A
:1000100073C0000071C000006FC000006DC0000020
:100020006BC0000069C0000067C0000065C0000030
:1000300063C0000061C000005FC000005DC0000040
:100040005BC0000059C0000057C0000055C0000050
:1000500053C0000051C000004FC000004DC0000060
:100060004BC0000049C0000047C0000045C0000070
:1000700043C0000041C000003FC000003DC0000080
:100080003BC0000039C0000037C0000035C0000090
:1000900033C0000031C000002FC000002DC00000A0
:1000A0002BC0000029C0000027C0000025C00000B0
:1000B00023C0000021C000001FC000001DC00000C0
:1000C0001BC0000019C0000017C0000015C00000D0
:1000D00013C0000011C000000FC000000DC00000E0
:1000E0000BC0000011241FBECFEFD1E2DEBFCDBF99
:1000F00000E00CBF02D090C183CFCF93DF9300D03C
:100100001F92CDB7DEB70FD080E39DE49C838B8335
:100110008EEB95E09A838983BE016D5F7F4FCE01A0
:10012000019623D0FFCF269A2E98E0E8F0E0808158
:1001300083628083E1E8F0E080818B618083EFE679
:10014000F0E080818B7F808380818D7F808310921F
:1001500089001092880010928B0010928A00E4E6C9
:10016000F0E08081877F808308950F931F93CF9362
:10017000DF938B011092850010928400FC01608156
:10018000718180E090E057D028EB3EE145E85EE3E6
:10019000B8D025D0EAE8F0E071836083C081D181D6
:1001A000F8016081718180E090E045D028EB3EE16C
:1001B00045E85EE3A6D013D06C0F7D1F70938900D5
:1001C00060938800EFE6F0E0808184608083808126
:1001D00082608083DF91CF911F910F91089570D03D
:1001E00088F09F5790F0B92F9927B751A0F0D1F020
:1001F000660F771F881F991F1AF0BA95C9F712C0AA
:10020000B13081F077D0B1E0089574C0672F782FB6
:100210008827B85F39F0B93FCCF386957795679515
:10022000B395D9F73EF490958095709561957F4F81
:100230008F4F9F4F0895E89409C097FB3EF4909527
:100240008095709561957F4F8F4F9F4F9923A9F0AF
:10025000F92F96E9BB279395F6958795779567953E
:10026000B795F111F8CFFAF4BB0F11F460FF1BC082
:100270006F5F7F4F8F4F9F4F16C0882311F096E915
:1002800011C0772321F09EE8872F762F05C06623C3
:1002900071F096E8862F70E060E02AF09A95660F7C
:1002A000771F881FDAF7880F9695879597F9089535
:1002B00057FD9058440F551F59F05F3F71F0479517
:1002C000880F97FB991F61F09F3F79F087950895FC
:1002D000121613061406551FF2CF4695F1DF08C01B
:1002E000161617061806991FF1CF86957105610538
:1002F00008940895E894BB2766277727CB0197F9E0
:1003000008950BD078C069D028F06ED018F09523EE
:1003100009F05AC05FC01124EECFCADFA0F3959F49
:10032000D1F3950F50E0551F629FF001729FBB27DC
:10033000F00DB11D639FAA27F00DB11DAA1F649F88
:100340006627B00DA11D661F829F2227B00DA11D3B
:10035000621F739FB00DA11D621F839FA00D611DC1
:10036000221F749F3327A00D611D231F849F600DE2
:10037000211D822F762F6A2F11249F5750408AF01B
:10038000E1F088234AF0EE0FFF1FBB1F661F771FA7
:10039000881F91505040A9F79E3F510570F014C03E
:1003A000AACF5F3FECF3983EDCF38695779567958F
:1003B000B795F795E7959F5FC1F7FE2B880F911DC5
:1003C0009695879597F9089597F99F6780E870E06B
:1003D00060E008959FEF80EC089500240A941616BB
:1003E000170618060906089500240A941216130623
:1003F000140605060895092E0394000C11F48823B1
:1004000052F0BB0F40F4BF2B11F460FF04C06F5FCC
:0C0410007F4F8F4F9F4F0895F894FFCF4F
:00000001FF
