S01400005465737454696D65724C69622E7372656358
S11300000C9434000C9446000C9446000C94460066
S11300100C9446000C9446000C9446000C94460044
S11300200C9446000C9446000C9446000C94480032
S11300300C9446000C9446000C9446000C94460024
S11300400C9446000C9446000C9446000C94460014
S11300500C9446000C9446000C9446000C94460004
S11300600C9446000C94460011241FBECFEFD8E038
S1130070DEBFCDBF21E0A0E0B1E001C01D92A430FD
S1130080B207E1F70E948D000C94AA000C940000C2
S11300901F920F920FB60F9211248F939F93AF93D9
S11300A0BF938091000190910101A0910201B09150
S11300B003010196A11DB11D8093000190930101DC
S11300C0A0930201B0930301BF91AF919F918F91CF
S11300D00F900FBE0F901F9018958BE080938100B6
S11300E089EF90E0909389008093880010928500B6
S11300F01092840082E080936F0078940895F894BD
S113010060910001709101018091020190910301BD
S113011078940895579A5F9A08950E948A000E94DD
S11301206D000E947F006B017C010E947F00DC0156
S1130130CB018C199D09AE09BF09853F9140A105EA
S1130140B10598F38BB180588BB90E947F006B0185
S10B01507C01EBCFF894FFCF12
S9030000FC
